{
  "_format": "hh-sol-artifact-1",
  "contractName": "NumberPredictionGame",
  "sourceName": "contracts/PlayToEarn.sol",
  "abi": [
    {
      "inputs": [],
      "stateMutability": "nonpayable",
      "type": "constructor"
    },
    {
      "anonymous": false,
      "inputs": [
        {
          "indexed": true,
          "internalType": "address",
          "name": "depositor",
          "type": "address"
        },
        {
          "indexed": false,
          "internalType": "uint256",
          "name": "amount",
          "type": "uint256"
        }
      ],
      "name": "FundsDeposited",
      "type": "event"
    },
    {
      "anonymous": false,
      "inputs": [
        {
          "indexed": true,
          "internalType": "address",
          "name": "owner",
          "type": "address"
        },
        {
          "indexed": false,
          "internalType": "uint256",
          "name": "amount",
          "type": "uint256"
        }
      ],
      "name": "FundsWithdrawn",
      "type": "event"
    },
    {
      "anonymous": false,
      "inputs": [
        {
          "indexed": true,
          "internalType": "uint256",
          "name": "gameId",
          "type": "uint256"
        },
        {
          "indexed": true,
          "internalType": "address",
          "name": "player",
          "type": "address"
        },
        {
          "indexed": false,
          "internalType": "uint256",
          "name": "betAmount",
          "type": "uint256"
        },
        {
          "indexed": false,
          "internalType": "uint8",
          "name": "predictedNumber",
          "type": "uint8"
        },
        {
          "indexed": false,
          "internalType": "uint8",
          "name": "resultNumber",
          "type": "uint8"
        },
        {
          "indexed": false,
          "internalType": "bool",
          "name": "won",
          "type": "bool"
        },
        {
          "indexed": false,
          "internalType": "uint256",
          "name": "payout",
          "type": "uint256"
        }
      ],
      "name": "GamePlayed",
      "type": "event"
    },
    {
      "inputs": [],
      "name": "depositFunds",
      "outputs": [],
      "stateMutability": "payable",
      "type": "function"
    },
    {
      "inputs": [],
      "name": "gameCounter",
      "outputs": [
        {
          "internalType": "uint256",
          "name": "",
          "type": "uint256"
        }
      ],
      "stateMutability": "view",
      "type": "function"
    },
    {
      "inputs": [
        {
          "internalType": "uint256",
          "name": "",
          "type": "uint256"
        }
      ],
      "name": "games",
      "outputs": [
        {
          "internalType": "address",
          "name": "player",
          "type": "address"
        },
        {
          "internalType": "uint256",
          "name": "betAmount",
          "type": "uint256"
        },
        {
          "internalType": "uint8",
          "name": "predictedNumber",
          "type": "uint8"
        },
        {
          "internalType": "uint8",
          "name": "resultNumber",
          "type": "uint8"
        },
        {
          "internalType": "bool",
          "name": "isComplete",
          "type": "bool"
        },
        {
          "internalType": "bool",
          "name": "won",
          "type": "bool"
        },
        {
          "internalType": "uint256",
          "name": "timestamp",
          "type": "uint256"
        }
      ],
      "stateMutability": "view",
      "type": "function"
    },
    {
      "inputs": [],
      "name": "getBalance",
      "outputs": [
        {
          "internalType": "uint256",
          "name": "",
          "type": "uint256"
        }
      ],
      "stateMutability": "view",
      "type": "function"
    },
    {
      "inputs": [
        {
          "internalType": "uint256",
          "name": "_gameId",
          "type": "uint256"
        }
      ],
      "name": "getGame",
      "outputs": [
        {
          "internalType": "address",
          "name": "player",
          "type": "address"
        },
        {
          "internalType": "uint256",
          "name": "betAmount",
          "type": "uint256"
        },
        {
          "internalType": "uint8",
          "name": "predictedNumber",
          "type": "uint8"
        },
        {
          "internalType": "uint8",
          "name": "resultNumber",
          "type": "uint8"
        },
        {
          "internalType": "bool",
          "name": "won",
          "type": "bool"
        },
        {
          "internalType": "uint256",
          "name": "timestamp",
          "type": "uint256"
        }
      ],
      "stateMutability": "view",
      "type": "function"
    },
    {
      "inputs": [
        {
          "internalType": "address",
          "name": "_player",
          "type": "address"
        },
        {
          "internalType": "uint256",
          "name": "_limit",
          "type": "uint256"
        }
      ],
      "name": "getPlayerGames",
      "outputs": [
        {
          "internalType": "uint256[]",
          "name": "",
          "type": "uint256[]"
        }
      ],
      "stateMutability": "view",
      "type": "function"
    },
    {
      "inputs": [],
      "name": "houseEdge",
      "outputs": [
        {
          "internalType": "uint256",
          "name": "",
          "type": "uint256"
        }
      ],
      "stateMutability": "view",
      "type": "function"
    },
    {
      "inputs": [],
      "name": "maxBet",
      "outputs": [
        {
          "internalType": "uint256",
          "name": "",
          "type": "uint256"
        }
      ],
      "stateMutability": "view",
      "type": "function"
    },
    {
      "inputs": [],
      "name": "minBet",
      "outputs": [
        {
          "internalType": "uint256",
          "name": "",
          "type": "uint256"
        }
      ],
      "stateMutability": "view",
      "type": "function"
    },
    {
      "inputs": [],
      "name": "owner",
      "outputs": [
        {
          "internalType": "address",
          "name": "",
          "type": "address"
        }
      ],
      "stateMutability": "view",
      "type": "function"
    },
    {
      "inputs": [
        {
          "internalType": "uint8",
          "name": "_predictedNumber",
          "type": "uint8"
        }
      ],
      "name": "play",
      "outputs": [],
      "stateMutability": "payable",
      "type": "function"
    },
    {
      "inputs": [
        {
          "internalType": "uint256",
          "name": "_minBet",
          "type": "uint256"
        },
        {
          "internalType": "uint256",
          "name": "_maxBet",
          "type": "uint256"
        }
      ],
      "name": "setBetLimits",
      "outputs": [],
      "stateMutability": "nonpayable",
      "type": "function"
    },
    {
      "inputs": [
        {
          "internalType": "uint256",
          "name": "_houseEdge",
          "type": "uint256"
        }
      ],
      "name": "setHouseEdge",
      "outputs": [],
      "stateMutability": "nonpayable",
      "type": "function"
    },
    {
      "inputs": [
        {
          "internalType": "address",
          "name": "_newOwner",
          "type": "address"
        }
      ],
      "name": "transferOwnership",
      "outputs": [],
      "stateMutability": "nonpayable",
      "type": "function"
    },
    {
      "inputs": [
        {
          "internalType": "uint256",
          "name": "_amount",
          "type": "uint256"
        }
      ],
      "name": "withdraw",
      "outputs": [],
      "stateMutability": "nonpayable",
      "type": "function"
    },
    {
      "stateMutability": "payable",
      "type": "receive"
    }
  ],
  "bytecode": "0x608080604052346100475766038d7ea4c68000600155670de0b6b3a76400006002556005600355600080546001600160a01b03191633178155600455610dc7908161004d8239f35b600080fdfe6080604081815260048036101561004b575b509050361561001f57600080fd5b513481527f543ba50a5eec5e6178218e364b1d0f396157b3c8fa278522c2cb7fd99407d47460203392a2005b600092833560e01c908163117a5b9014610a345750806312065fe014610a19578063288b4595146109b35780632e0be39a146109965780632e1a7d4d146108945780632e5b21681461087557806353a04b051461049a5780636cd0f1021461041d5780637687dd491461032c5780638da5cb5b146103065780639619367d146102e7578063a2f77bcc1461023f578063d667dcd71461021c578063e2c41dbc1461019a5763f2fde38b03610011573461019657602036600319011261019657610112610aad565b908354916001600160a01b039061012c8285163314610d20565b1692831561015357505073ffffffffffffffffffffffffffffffffffffffff191617815580f35b906020606492519162461bcd60e51b8352820152602060248201527f4e6577206f776e65722063616e6e6f74206265207a65726f20616464726573736044820152fd5b8280fd5b50826003193601126101965734156101da5750513481527f543ba50a5eec5e6178218e364b1d0f396157b3c8fa278522c2cb7fd99407d47460203392a280f35b6020606492519162461bcd60e51b8352820152600d60248201527f4d7573742073656e6420455448000000000000000000000000000000000000006044820152fd5b50503461023b578160031936011261023b576020906003549051908152f35b5080fd5b5034610196576020366003190112610196578160c093849235815260056020522082519261026c84610aed565b6001600160a01b038254169384815260018301549182602083015260028401549260ff8416928383820152600360ff808760081c1696876060850152818160101c161515608085015260181c161515968760a084015201549687910152815196875260208701528501526060840152608083015260a0820152f35b50503461023b578160031936011261023b576020906001549051908152f35b50503461023b578160031936011261023b576001600160a01b0360209254169051908152f35b5034610196578160031936011261019657803590602435926103596001600160a01b038654163314610d20565b82156103da578284111561037257505060015560025580f35b906020608492519162461bcd60e51b83528201526024808201527f4d617820626574206d7573742062652067726561746572207468616e206d696e60448201527f20626574000000000000000000000000000000000000000000000000000000006064820152fd5b906020606492519162461bcd60e51b8352820152601e60248201527f4d696e20626574206d7573742062652067726561746572207468616e203000006044820152fd5b5034610196576020366003190112610196578035916104476001600160a01b038554163314610d20565b6014831161045757505060035580f35b906020606492519162461bcd60e51b8352820152601c60248201527f486f75736520656467652063616e6e6f742065786365656420323025000000006044820152fd5b5090602091826003193601126108715780359060ff821680920361086d576001908154341061082b5760025434116107e95781831015806107de575b1561079c576104e58154610ac8565b938482558051938685019342855244838701523360601b60608701528660748701526074865260a086019486861067ffffffffffffffff8711176107895760069086855287519020068181018091116107765760ff169389888a858814998a99849b61069c575b50509085888a876003956001600160a01b038c80519961056b8b610aed565b338b526005848c0194348652838d01998a5260608d0198895260808d0196875260a08d0197885260c08d019a428c528352522098511673ffffffffffffffffffffffffffffffffffffffff19895416178855518988015560ff6002880194511663ff00000062ff000061ff008754965160081b169351151560101b169351151560181b169363ffffffff191617171717905551910155338a5260068952838a20908154926801000000000000000084101561068957830180835583101561067657509087918a52888a200155815196348852870152850152606084015260808301527f6d7c5de0bd9da4132c906a09c176222cd1f3dc89acae0530a676097f310bd55460a03393a380f35b8a6032602492634e487b7160e01b835252fd5b60248c604184634e487b7160e01b835252fd5b9350995050506006340290348204600614341517156107635781988247106107225750508a80808093335af16106d0610b41565b50156106e05789888a388061054c565b6064908985519162461bcd60e51b8352820152601660248201527f5061796f7574207472616e73666572206661696c6564000000000000000000006044820152fd5b907f496e73756666696369656e7420636f6e74726163742062616c616e636500000060e46064938e62461bcd60e51b855260a4820152601d60c48201520152fd5b60248c601185634e487b7160e01b835252fd5b60248a601187634e487b7160e01b835252fd5b60248a604187634e487b7160e01b835252fd5b6064908585519162461bcd60e51b8352820152601e60248201527f4e756d626572206d757374206265206265747765656e203120616e64203600006044820152fd5b5060068311156104d6565b6064908585519162461bcd60e51b8352820152601660248201527f42657420616d6f756e7420697320746f6f2068696768000000000000000000006044820152fd5b6064908585519162461bcd60e51b8352820152601560248201527f42657420616d6f756e7420697320746f6f206c6f7700000000000000000000006044820152fd5b8480fd5b8380fd5b50503461023b578160031936011261023b576020906002549051908152f35b5034610196576020366003190112610196578035906001600160a01b0390818554166108c1813314610d20565b478411610953578580808681945af16108d8610b41565b501561091057507feaff4b37086828766ad3268786972c0cd24259d4c87a80f9d3963a3c3d999b0d916020918554169351908152a280f35b606490602085519162461bcd60e51b8352820152601160248201527f5769746864726177616c206661696c65640000000000000000000000000000006044820152fd5b606482602087519162461bcd60e51b8352820152601460248201527f496e73756666696369656e742062616c616e63650000000000000000000000006044820152fd5b503461019657826003193601126101965760209250549051908152f35b50503461023b578060031936011261023b576109d96109d0610aad565b60243590610bc3565b815192839260208080860192818752855180945286019401925b828110610a0257505050500390f35b8351855286955093810193928101926001016109f3565b50503461023b578160031936011261023b5751478152602090f35b9291905034610871576020366003190112610871578160e09460ff923581526005602052206001600160a01b0381541692600182015460036002840154930154948652602086015282821690850152818160081c166060850152818160101c161515608085015260181c16151560a083015260c0820152f35b600435906001600160a01b0382168203610ac357565b600080fd5b6000198114610ad75760010190565b634e487b7160e01b600052601160045260246000fd5b60e0810190811067ffffffffffffffff821117610b0957604052565b634e487b7160e01b600052604160045260246000fd5b90601f8019910116810190811067ffffffffffffffff821117610b0957604052565b3d15610b7c573d9067ffffffffffffffff8211610b095760405191610b70601f8201601f191660200184610b1f565b82523d6000602084013e565b606090565b67ffffffffffffffff8111610b095760051b60200190565b8051821015610bad5760209160051b010190565b634e487b7160e01b600052603260045260246000fd5b6001600160a01b036000911681526020916006835260408220604051808286829454938481520190865286862092865b88828210610d0a57505050610c0a92500382610b1f565b8051918215610cce5780831115610cc65791925b610c2783610b81565b94610c356040519687610b1f565b838652601f19610c4485610b81565b0190369087013760001980850194808611835b868110610c6957505050505050505090565b81610cb2578381840301888111610c9e5790610c88610c999288610b99565b51610c93828c610b99565b52610ac8565b610c57565b602486634e487b7160e01b81526011600452fd5b602485634e487b7160e01b81526011600452fd5b508192610c1e565b50505060405191820182811067ffffffffffffffff821117610cf65760405280825236813790565b602482634e487b7160e01b81526041600452fd5b8554845260019586019587955093019201610bf3565b15610d2757565b608460405162461bcd60e51b815260206004820152602160248201527f4f6e6c79206f776e65722063616e2063616c6c20746869732066756e6374696f60448201527f6e000000000000000000000000000000000000000000000000000000000000006064820152fdfea26469706673582212208b145e885fe4068bb76f1f91013fe2f9a8f489246bfd76f6e406dd064ae7493a64736f6c63430008130033",
  "linkReferences": {},
  "deployedLinkReferences": {}
}