{"contracts/PlayToEarn.sol":{"NumberPredictionGame":{"abi":[{"inputs":[],"stateMutability":"nonpayable","type":"constructor"},{"anonymous":false,"inputs":[{"indexed":true,"internalType":"address","name":"depositor","type":"address"},{"indexed":false,"internalType":"uint256","name":"amount","type":"uint256"}],"name":"FundsDeposited","type":"event"},{"anonymous":false,"inputs":[{"indexed":true,"internalType":"address","name":"owner","type":"address"},{"indexed":false,"internalType":"uint256","name":"amount","type":"uint256"}],"name":"FundsWithdrawn","type":"event"},{"anonymous":false,"inputs":[{"indexed":true,"internalType":"uint256","name":"gameId","type":"uint256"},{"indexed":true,"internalType":"address","name":"player","type":"address"},{"indexed":false,"internalType":"uint256","name":"betAmount","type":"uint256"},{"indexed":false,"internalType":"uint8","name":"predictedNumber","type":"uint8"},{"indexed":false,"internalType":"uint8","name":"resultNumber","type":"uint8"},{"indexed":false,"internalType":"bool","name":"won","type":"bool"},{"indexed":false,"internalType":"uint256","name":"payout","type":"uint256"}],"name":"GamePlayed","type":"event"},{"inputs":[],"name":"depositFunds","outputs":[],"stateMutability":"payable","type":"function"},{"inputs":[],"name":"gameCounter","outputs":[{"internalType":"uint256","name":"","type":"uint256"}],"stateMutability":"view","type":"function"},{"inputs":[{"internalType":"uint256","name":"","type":"uint256"}],"name":"games","outputs":[{"internalType":"address","name":"player","type":"address"},{"internalType":"uint256","name":"betAmount","type":"uint256"},{"internalType":"uint8","name":"predictedNumber","type":"uint8"},{"internalType":"uint8","name":"resultNumber","type":"uint8"},{"internalType":"bool","name":"isComplete","type":"bool"},{"internalType":"bool","name":"won","type":"bool"},{"internalType":"uint256","name":"timestamp","type":"uint256"}],"stateMutability":"view","type":"function"},{"inputs":[],"name":"getBalance","outputs":[{"internalType":"uint256","name":"","type":"uint256"}],"stateMutability":"view","type":"function"},{"inputs":[{"internalType":"uint256","name":"_gameId","type":"uint256"}],"name":"getGame","outputs":[{"internalType":"address","name":"player","type":"address"},{"internalType":"uint256","name":"betAmount","type":"uint256"},{"internalType":"uint8","name":"predictedNumber","type":"uint8"},{"internalType":"uint8","name":"resultNumber","type":"uint8"},{"internalType":"bool","name":"won","type":"bool"},{"internalType":"uint256","name":"timestamp","type":"uint256"}],"stateMutability":"view","type":"function"},{"inputs":[{"internalType":"address","name":"_player","type":"address"},{"internalType":"uint256","name":"_limit","type":"uint256"}],"name":"getPlayerGames","outputs":[{"internalType":"uint256[]","name":"","type":"uint256[]"}],"stateMutability":"view","type":"function"},{"inputs":[],"name":"houseEdge","outputs":[{"internalType":"uint256","name":"","type":"uint256"}],"stateMutability":"view","type":"function"},{"inputs":[],"name":"maxBet","outputs":[{"internalType":"uint256","name":"","type":"uint256"}],"stateMutability":"view","type":"function"},{"inputs":[],"name":"minBet","outputs":[{"internalType":"uint256","name":"","type":"uint256"}],"stateMutability":"view","type":"function"},{"inputs":[],"name":"owner","outputs":[{"internalType":"address","name":"","type":"address"}],"stateMutability":"view","type":"function"},{"inputs":[{"internalType":"uint8","name":"_predictedNumber","type":"uint8"}],"name":"play","outputs":[],"stateMutability":"payable","type":"function"},{"inputs":[{"internalType":"uint256","name":"_minBet","type":"uint256"},{"internalType":"uint256","name":"_maxBet","type":"uint256"}],"name":"setBetLimits","outputs":[],"stateMutability":"nonpayable","type":"function"},{"inputs":[{"internalType":"uint256","name":"_houseEdge","type":"uint256"}],"name":"setHouseEdge","outputs":[],"stateMutability":"nonpayable","type":"function"},{"inputs":[{"internalType":"address","name":"_newOwner","type":"address"}],"name":"transferOwnership","outputs":[],"stateMutability":"nonpayable","type":"function"},{"inputs":[{"internalType":"uint256","name":"_amount","type":"uint256"}],"name":"withdraw","outputs":[],"stateMutability":"nonpayable","type":"function"},{"stateMutability":"payable","type":"receive"}],"evm":{"bytecode":{"linkReferences":{},"object":"608080604052346100475766038d7ea4c68000600155670de0b6b3a76400006002556005600355600080546001600160a01b03191633178155600455610dc7908161004d8239f35b600080fdfe6080604081815260048036101561004b575b509050361561001f57600080fd5b513481527f543ba50a5eec5e6178218e364b1d0f396157b3c8fa278522c2cb7fd99407d47460203392a2005b600092833560e01c908163117a5b9014610a345750806312065fe014610a19578063288b4595146109b35780632e0be39a146109965780632e1a7d4d146108945780632e5b21681461087557806353a04b051461049a5780636cd0f1021461041d5780637687dd491461032c5780638da5cb5b146103065780639619367d146102e7578063a2f77bcc1461023f578063d667dcd71461021c578063e2c41dbc1461019a5763f2fde38b03610011573461019657602036600319011261019657610112610aad565b908354916001600160a01b039061012c8285163314610d20565b1692831561015357505073ffffffffffffffffffffffffffffffffffffffff191617815580f35b906020606492519162461bcd60e51b8352820152602060248201527f4e6577206f776e65722063616e6e6f74206265207a65726f20616464726573736044820152fd5b8280fd5b50826003193601126101965734156101da5750513481527f543ba50a5eec5e6178218e364b1d0f396157b3c8fa278522c2cb7fd99407d47460203392a280f35b6020606492519162461bcd60e51b8352820152600d60248201527f4d7573742073656e6420455448000000000000000000000000000000000000006044820152fd5b50503461023b578160031936011261023b576020906003549051908152f35b5080fd5b5034610196576020366003190112610196578160c093849235815260056020522082519261026c84610aed565b6001600160a01b038254169384815260018301549182602083015260028401549260ff8416928383820152600360ff808760081c1696876060850152818160101c161515608085015260181c161515968760a084015201549687910152815196875260208701528501526060840152608083015260a0820152f35b50503461023b578160031936011261023b576020906001549051908152f35b50503461023b578160031936011261023b576001600160a01b0360209254169051908152f35b5034610196578160031936011261019657803590602435926103596001600160a01b038654163314610d20565b82156103da578284111561037257505060015560025580f35b906020608492519162461bcd60e51b83528201526024808201527f4d617820626574206d7573742062652067726561746572207468616e206d696e60448201527f20626574000000000000000000000000000000000000000000000000000000006064820152fd5b906020606492519162461bcd60e51b8352820152601e60248201527f4d696e20626574206d7573742062652067726561746572207468616e203000006044820152fd5b5034610196576020366003190112610196578035916104476001600160a01b038554163314610d20565b6014831161045757505060035580f35b906020606492519162461bcd60e51b8352820152601c60248201527f486f75736520656467652063616e6e6f742065786365656420323025000000006044820152fd5b5090602091826003193601126108715780359060ff821680920361086d576001908154341061082b5760025434116107e95781831015806107de575b1561079c576104e58154610ac8565b938482558051938685019342855244838701523360601b60608701528660748701526074865260a086019486861067ffffffffffffffff8711176107895760069086855287519020068181018091116107765760ff169389888a858814998a99849b61069c575b50509085888a876003956001600160a01b038c80519961056b8b610aed565b338b526005848c0194348652838d01998a5260608d0198895260808d0196875260a08d0197885260c08d019a428c528352522098511673ffffffffffffffffffffffffffffffffffffffff19895416178855518988015560ff6002880194511663ff00000062ff000061ff008754965160081b169351151560101b169351151560181b169363ffffffff191617171717905551910155338a5260068952838a20908154926801000000000000000084101561068957830180835583101561067657509087918a52888a200155815196348852870152850152606084015260808301527f6d7c5de0bd9da4132c906a09c176222cd1f3dc89acae0530a676097f310bd55460a03393a380f35b8a6032602492634e487b7160e01b835252fd5b60248c604184634e487b7160e01b835252fd5b9350995050506006340290348204600614341517156107635781988247106107225750508a80808093335af16106d0610b41565b50156106e05789888a388061054c565b6064908985519162461bcd60e51b8352820152601660248201527f5061796f7574207472616e73666572206661696c6564000000000000000000006044820152fd5b907f496e73756666696369656e7420636f6e74726163742062616c616e636500000060e46064938e62461bcd60e51b855260a4820152601d60c48201520152fd5b60248c601185634e487b7160e01b835252fd5b60248a601187634e487b7160e01b835252fd5b60248a604187634e487b7160e01b835252fd5b6064908585519162461bcd60e51b8352820152601e60248201527f4e756d626572206d757374206265206265747765656e203120616e64203600006044820152fd5b5060068311156104d6565b6064908585519162461bcd60e51b8352820152601660248201527f42657420616d6f756e7420697320746f6f2068696768000000000000000000006044820152fd5b6064908585519162461bcd60e51b8352820152601560248201527f42657420616d6f756e7420697320746f6f206c6f7700000000000000000000006044820152fd5b8480fd5b8380fd5b50503461023b578160031936011261023b576020906002549051908152f35b5034610196576020366003190112610196578035906001600160a01b0390818554166108c1813314610d20565b478411610953578580808681945af16108d8610b41565b501561091057507feaff4b37086828766ad3268786972c0cd24259d4c87a80f9d3963a3c3d999b0d916020918554169351908152a280f35b606490602085519162461bcd60e51b8352820152601160248201527f5769746864726177616c206661696c65640000000000000000000000000000006044820152fd5b606482602087519162461bcd60e51b8352820152601460248201527f496e73756666696369656e742062616c616e63650000000000000000000000006044820152fd5b503461019657826003193601126101965760209250549051908152f35b50503461023b578060031936011261023b576109d96109d0610aad565b60243590610bc3565b815192839260208080860192818752855180945286019401925b828110610a0257505050500390f35b8351855286955093810193928101926001016109f3565b50503461023b578160031936011261023b5751478152602090f35b9291905034610871576020366003190112610871578160e09460ff923581526005602052206001600160a01b0381541692600182015460036002840154930154948652602086015282821690850152818160081c166060850152818160101c161515608085015260181c16151560a083015260c0820152f35b600435906001600160a01b0382168203610ac357565b600080fd5b6000198114610ad75760010190565b634e487b7160e01b600052601160045260246000fd5b60e0810190811067ffffffffffffffff821117610b0957604052565b634e487b7160e01b600052604160045260246000fd5b90601f8019910116810190811067ffffffffffffffff821117610b0957604052565b3d15610b7c573d9067ffffffffffffffff8211610b095760405191610b70601f8201601f191660200184610b1f565b82523d6000602084013e565b606090565b67ffffffffffffffff8111610b095760051b60200190565b8051821015610bad5760209160051b010190565b634e487b7160e01b600052603260045260246000fd5b6001600160a01b036000911681526020916006835260408220604051808286829454938481520190865286862092865b88828210610d0a57505050610c0a92500382610b1f565b8051918215610cce5780831115610cc65791925b610c2783610b81565b94610c356040519687610b1f565b838652601f19610c4485610b81565b0190369087013760001980850194808611835b868110610c6957505050505050505090565b81610cb2578381840301888111610c9e5790610c88610c999288610b99565b51610c93828c610b99565b52610ac8565b610c57565b602486634e487b7160e01b81526011600452fd5b602485634e487b7160e01b81526011600452fd5b508192610c1e565b50505060405191820182811067ffffffffffffffff821117610cf65760405280825236813790565b602482634e487b7160e01b81526041600452fd5b8554845260019586019587955093019201610bf3565b15610d2757565b608460405162461bcd60e51b815260206004820152602160248201527f4f6e6c79206f776e65722063616e2063616c6c20746869732066756e6374696f60448201527f6e000000000000000000000000000000000000000000000000000000000000006064820152fdfea26469706673582212208b145e885fe4068bb76f1f91013fe2f9a8f489246bfd76f6e406dd064ae7493a64736f6c63430008130033","opcodes":"PUSH1 0x80 DUP1 PUSH1 0x40 MSTORE CALLVALUE PUSH2 0x47 JUMPI PUSH7 0x38D7EA4C68000 PUSH1 0x1 SSTORE PUSH8 0xDE0B6B3A7640000 PUSH1 0x2 SSTORE PUSH1 0x5 PUSH1 0x3 SSTORE PUSH1 0x0 DUP1 SLOAD PUSH1 0x1 PUSH1 0x1 PUSH1 0xA0 SHL SUB NOT AND CALLER OR DUP2 SSTORE PUSH1 0x4 SSTORE PUSH2 0xDC7 SWAP1 DUP2 PUSH2 0x4D DUP3 CODECOPY RETURN JUMPDEST PUSH1 0x0 DUP1 REVERT INVALID PUSH1 0x80 PUSH1 0x40 DUP2 DUP2 MSTORE PUSH1 0x4 DUP1 CALLDATASIZE LT ISZERO PUSH2 0x4B JUMPI JUMPDEST POP SWAP1 POP CALLDATASIZE ISZERO PUSH2 0x1F JUMPI PUSH1 0x0 DUP1 REVERT JUMPDEST MLOAD CALLVALUE DUP2 MSTORE PUSH32 0x543BA50A5EEC5E6178218E364B1D0F396157B3C8FA278522C2CB7FD99407D474 PUSH1 0x20 CALLER SWAP3 LOG2 STOP JUMPDEST PUSH1 0x0 SWAP3 DUP4 CALLDATALOAD PUSH1 0xE0 SHR SWAP1 DUP2 PUSH4 0x117A5B90 EQ PUSH2 0xA34 JUMPI POP DUP1 PUSH4 0x12065FE0 EQ PUSH2 0xA19 JUMPI DUP1 PUSH4 0x288B4595 EQ PUSH2 0x9B3 JUMPI DUP1 PUSH4 0x2E0BE39A EQ PUSH2 0x996 JUMPI DUP1 PUSH4 0x2E1A7D4D EQ PUSH2 0x894 JUMPI DUP1 PUSH4 0x2E5B2168 EQ PUSH2 0x875 JUMPI DUP1 PUSH4 0x53A04B05 EQ PUSH2 0x49A JUMPI DUP1 PUSH4 0x6CD0F102 EQ PUSH2 0x41D JUMPI DUP1 PUSH4 0x7687DD49 EQ PUSH2 0x32C JUMPI DUP1 PUSH4 0x8DA5CB5B EQ PUSH2 0x306 JUMPI DUP1 PUSH4 0x9619367D EQ PUSH2 0x2E7 JUMPI DUP1 PUSH4 0xA2F77BCC EQ PUSH2 0x23F JUMPI DUP1 PUSH4 0xD667DCD7 EQ PUSH2 0x21C JUMPI DUP1 PUSH4 0xE2C41DBC EQ PUSH2 0x19A JUMPI PUSH4 0xF2FDE38B SUB PUSH2 0x11 JUMPI CALLVALUE PUSH2 0x196 JUMPI PUSH1 0x20 CALLDATASIZE PUSH1 0x3 NOT ADD SLT PUSH2 0x196 JUMPI PUSH2 0x112 PUSH2 0xAAD JUMP JUMPDEST SWAP1 DUP4 SLOAD SWAP2 PUSH1 0x1 PUSH1 0x1 PUSH1 0xA0 SHL SUB SWAP1 PUSH2 0x12C DUP3 DUP6 AND CALLER EQ PUSH2 0xD20 JUMP JUMPDEST AND SWAP3 DUP4 ISZERO PUSH2 0x153 JUMPI POP POP PUSH20 0xFFFFFFFFFFFFFFFFFFFFFFFFFFFFFFFFFFFFFFFF NOT AND OR DUP2 SSTORE DUP1 RETURN JUMPDEST SWAP1 PUSH1 0x20 PUSH1 0x64 SWAP3 MLOAD SWAP2 PUSH3 0x461BCD PUSH1 0xE5 SHL DUP4 MSTORE DUP3 ADD MSTORE PUSH1 0x20 PUSH1 0x24 DUP3 ADD MSTORE PUSH32 0x4E6577206F776E65722063616E6E6F74206265207A65726F2061646472657373 PUSH1 0x44 DUP3 ADD MSTORE REVERT JUMPDEST DUP3 DUP1 REVERT JUMPDEST POP DUP3 PUSH1 0x3 NOT CALLDATASIZE ADD SLT PUSH2 0x196 JUMPI CALLVALUE ISZERO PUSH2 0x1DA JUMPI POP MLOAD CALLVALUE DUP2 MSTORE PUSH32 0x543BA50A5EEC5E6178218E364B1D0F396157B3C8FA278522C2CB7FD99407D474 PUSH1 0x20 CALLER SWAP3 LOG2 DUP1 RETURN JUMPDEST PUSH1 0x20 PUSH1 0x64 SWAP3 MLOAD SWAP2 PUSH3 0x461BCD PUSH1 0xE5 SHL DUP4 MSTORE DUP3 ADD MSTORE PUSH1 0xD PUSH1 0x24 DUP3 ADD MSTORE PUSH32 0x4D7573742073656E642045544800000000000000000000000000000000000000 PUSH1 0x44 DUP3 ADD MSTORE REVERT JUMPDEST POP POP CALLVALUE PUSH2 0x23B JUMPI DUP2 PUSH1 0x3 NOT CALLDATASIZE ADD SLT PUSH2 0x23B JUMPI PUSH1 0x20 SWAP1 PUSH1 0x3 SLOAD SWAP1 MLOAD SWAP1 DUP2 MSTORE RETURN JUMPDEST POP DUP1 REVERT JUMPDEST POP CALLVALUE PUSH2 0x196 JUMPI PUSH1 0x20 CALLDATASIZE PUSH1 0x3 NOT ADD SLT PUSH2 0x196 JUMPI DUP2 PUSH1 0xC0 SWAP4 DUP5 SWAP3 CALLDATALOAD DUP2 MSTORE PUSH1 0x5 PUSH1 0x20 MSTORE KECCAK256 DUP3 MLOAD SWAP3 PUSH2 0x26C DUP5 PUSH2 0xAED JUMP JUMPDEST PUSH1 0x1 PUSH1 0x1 PUSH1 0xA0 SHL SUB DUP3 SLOAD AND SWAP4 DUP5 DUP2 MSTORE PUSH1 0x1 DUP4 ADD SLOAD SWAP2 DUP3 PUSH1 0x20 DUP4 ADD MSTORE PUSH1 0x2 DUP5 ADD SLOAD SWAP3 PUSH1 0xFF DUP5 AND SWAP3 DUP4 DUP4 DUP3 ADD MSTORE PUSH1 0x3 PUSH1 0xFF DUP1 DUP8 PUSH1 0x8 SHR AND SWAP7 DUP8 PUSH1 0x60 DUP6 ADD MSTORE DUP2 DUP2 PUSH1 0x10 SHR AND ISZERO ISZERO PUSH1 0x80 DUP6 ADD MSTORE PUSH1 0x18 SHR AND ISZERO ISZERO SWAP7 DUP8 PUSH1 0xA0 DUP5 ADD MSTORE ADD SLOAD SWAP7 DUP8 SWAP2 ADD MSTORE DUP2 MLOAD SWAP7 DUP8 MSTORE PUSH1 0x20 DUP8 ADD MSTORE DUP6 ADD MSTORE PUSH1 0x60 DUP5 ADD MSTORE PUSH1 0x80 DUP4 ADD MSTORE PUSH1 0xA0 DUP3 ADD MSTORE RETURN JUMPDEST POP POP CALLVALUE PUSH2 0x23B JUMPI DUP2 PUSH1 0x3 NOT CALLDATASIZE ADD SLT PUSH2 0x23B JUMPI PUSH1 0x20 SWAP1 PUSH1 0x1 SLOAD SWAP1 MLOAD SWAP1 DUP2 MSTORE RETURN JUMPDEST POP POP CALLVALUE PUSH2 0x23B JUMPI DUP2 PUSH1 0x3 NOT CALLDATASIZE ADD SLT PUSH2 0x23B JUMPI PUSH1 0x1 PUSH1 0x1 PUSH1 0xA0 SHL SUB PUSH1 0x20 SWAP3 SLOAD AND SWAP1 MLOAD SWAP1 DUP2 MSTORE RETURN JUMPDEST POP CALLVALUE PUSH2 0x196 JUMPI DUP2 PUSH1 0x3 NOT CALLDATASIZE ADD SLT PUSH2 0x196 JUMPI DUP1 CALLDATALOAD SWAP1 PUSH1 0x24 CALLDATALOAD SWAP3 PUSH2 0x359 PUSH1 0x1 PUSH1 0x1 PUSH1 0xA0 SHL SUB DUP7 SLOAD AND CALLER EQ PUSH2 0xD20 JUMP JUMPDEST DUP3 ISZERO PUSH2 0x3DA JUMPI DUP3 DUP5 GT ISZERO PUSH2 0x372 JUMPI POP POP PUSH1 0x1 SSTORE PUSH1 0x2 SSTORE DUP1 RETURN JUMPDEST SWAP1 PUSH1 0x20 PUSH1 0x84 SWAP3 MLOAD SWAP2 PUSH3 0x461BCD PUSH1 0xE5 SHL DUP4 MSTORE DUP3 ADD MSTORE PUSH1 0x24 DUP1 DUP3 ADD MSTORE PUSH32 0x4D617820626574206D7573742062652067726561746572207468616E206D696E PUSH1 0x44 DUP3 ADD MSTORE PUSH32 0x2062657400000000000000000000000000000000000000000000000000000000 PUSH1 0x64 DUP3 ADD MSTORE REVERT JUMPDEST SWAP1 PUSH1 0x20 PUSH1 0x64 SWAP3 MLOAD SWAP2 PUSH3 0x461BCD PUSH1 0xE5 SHL DUP4 MSTORE DUP3 ADD MSTORE PUSH1 0x1E PUSH1 0x24 DUP3 ADD MSTORE PUSH32 0x4D696E20626574206D7573742062652067726561746572207468616E20300000 PUSH1 0x44 DUP3 ADD MSTORE REVERT JUMPDEST POP CALLVALUE PUSH2 0x196 JUMPI PUSH1 0x20 CALLDATASIZE PUSH1 0x3 NOT ADD SLT PUSH2 0x196 JUMPI DUP1 CALLDATALOAD SWAP2 PUSH2 0x447 PUSH1 0x1 PUSH1 0x1 PUSH1 0xA0 SHL SUB DUP6 SLOAD AND CALLER EQ PUSH2 0xD20 JUMP JUMPDEST PUSH1 0x14 DUP4 GT PUSH2 0x457 JUMPI POP POP PUSH1 0x3 SSTORE DUP1 RETURN JUMPDEST SWAP1 PUSH1 0x20 PUSH1 0x64 SWAP3 MLOAD SWAP2 PUSH3 0x461BCD PUSH1 0xE5 SHL DUP4 MSTORE DUP3 ADD MSTORE PUSH1 0x1C PUSH1 0x24 DUP3 ADD MSTORE PUSH32 0x486F75736520656467652063616E6E6F74206578636565642032302500000000 PUSH1 0x44 DUP3 ADD MSTORE REVERT JUMPDEST POP SWAP1 PUSH1 0x20 SWAP2 DUP3 PUSH1 0x3 NOT CALLDATASIZE ADD SLT PUSH2 0x871 JUMPI DUP1 CALLDATALOAD SWAP1 PUSH1 0xFF DUP3 AND DUP1 SWAP3 SUB PUSH2 0x86D JUMPI PUSH1 0x1 SWAP1 DUP2 SLOAD CALLVALUE LT PUSH2 0x82B JUMPI PUSH1 0x2 SLOAD CALLVALUE GT PUSH2 0x7E9 JUMPI DUP2 DUP4 LT ISZERO DUP1 PUSH2 0x7DE JUMPI JUMPDEST ISZERO PUSH2 0x79C JUMPI PUSH2 0x4E5 DUP2 SLOAD PUSH2 0xAC8 JUMP JUMPDEST SWAP4 DUP5 DUP3 SSTORE DUP1 MLOAD SWAP4 DUP7 DUP6 ADD SWAP4 TIMESTAMP DUP6 MSTORE PREVRANDAO DUP4 DUP8 ADD MSTORE CALLER PUSH1 0x60 SHL PUSH1 0x60 DUP8 ADD MSTORE DUP7 PUSH1 0x74 DUP8 ADD MSTORE PUSH1 0x74 DUP7 MSTORE PUSH1 0xA0 DUP7 ADD SWAP5 DUP7 DUP7 LT PUSH8 0xFFFFFFFFFFFFFFFF DUP8 GT OR PUSH2 0x789 JUMPI PUSH1 0x6 SWAP1 DUP7 DUP6 MSTORE DUP8 MLOAD SWAP1 KECCAK256 MOD DUP2 DUP2 ADD DUP1 SWAP2 GT PUSH2 0x776 JUMPI PUSH1 0xFF AND SWAP4 DUP10 DUP9 DUP11 DUP6 DUP9 EQ SWAP10 DUP11 SWAP10 DUP5 SWAP12 PUSH2 0x69C JUMPI JUMPDEST POP POP SWAP1 DUP6 DUP9 DUP11 DUP8 PUSH1 0x3 SWAP6 PUSH1 0x1 PUSH1 0x1 PUSH1 0xA0 SHL SUB DUP13 DUP1 MLOAD SWAP10 PUSH2 0x56B DUP12 PUSH2 0xAED JUMP JUMPDEST CALLER DUP12 MSTORE PUSH1 0x5 DUP5 DUP13 ADD SWAP5 CALLVALUE DUP7 MSTORE DUP4 DUP14 ADD SWAP10 DUP11 MSTORE PUSH1 0x60 DUP14 ADD SWAP9 DUP10 MSTORE PUSH1 0x80 DUP14 ADD SWAP7 DUP8 MSTORE PUSH1 0xA0 DUP14 ADD SWAP8 DUP9 MSTORE PUSH1 0xC0 DUP14 ADD SWAP11 TIMESTAMP DUP13 MSTORE DUP4 MSTORE MSTORE KECCAK256 SWAP9 MLOAD AND PUSH20 0xFFFFFFFFFFFFFFFFFFFFFFFFFFFFFFFFFFFFFFFF NOT DUP10 SLOAD AND OR DUP9 SSTORE MLOAD DUP10 DUP9 ADD SSTORE PUSH1 0xFF PUSH1 0x2 DUP9 ADD SWAP5 MLOAD AND PUSH4 0xFF000000 PUSH3 0xFF0000 PUSH2 0xFF00 DUP8 SLOAD SWAP7 MLOAD PUSH1 0x8 SHL AND SWAP4 MLOAD ISZERO ISZERO PUSH1 0x10 SHL AND SWAP4 MLOAD ISZERO ISZERO PUSH1 0x18 SHL AND SWAP4 PUSH4 0xFFFFFFFF NOT AND OR OR OR OR SWAP1 SSTORE MLOAD SWAP2 ADD SSTORE CALLER DUP11 MSTORE PUSH1 0x6 DUP10 MSTORE DUP4 DUP11 KECCAK256 SWAP1 DUP2 SLOAD SWAP3 PUSH9 0x10000000000000000 DUP5 LT ISZERO PUSH2 0x689 JUMPI DUP4 ADD DUP1 DUP4 SSTORE DUP4 LT ISZERO PUSH2 0x676 JUMPI POP SWAP1 DUP8 SWAP2 DUP11 MSTORE DUP9 DUP11 KECCAK256 ADD SSTORE DUP2 MLOAD SWAP7 CALLVALUE DUP9 MSTORE DUP8 ADD MSTORE DUP6 ADD MSTORE PUSH1 0x60 DUP5 ADD MSTORE PUSH1 0x80 DUP4 ADD MSTORE PUSH32 0x6D7C5DE0BD9DA4132C906A09C176222CD1F3DC89ACAE0530A676097F310BD554 PUSH1 0xA0 CALLER SWAP4 LOG3 DUP1 RETURN JUMPDEST DUP11 PUSH1 0x32 PUSH1 0x24 SWAP3 PUSH4 0x4E487B71 PUSH1 0xE0 SHL DUP4 MSTORE MSTORE REVERT JUMPDEST PUSH1 0x24 DUP13 PUSH1 0x41 DUP5 PUSH4 0x4E487B71 PUSH1 0xE0 SHL DUP4 MSTORE MSTORE REVERT JUMPDEST SWAP4 POP SWAP10 POP POP POP PUSH1 0x6 CALLVALUE MUL SWAP1 CALLVALUE DUP3 DIV PUSH1 0x6 EQ CALLVALUE ISZERO OR ISZERO PUSH2 0x763 JUMPI DUP2 SWAP9 DUP3 SELFBALANCE LT PUSH2 0x722 JUMPI POP POP DUP11 DUP1 DUP1 DUP1 SWAP4 CALLER GAS CALL PUSH2 0x6D0 PUSH2 0xB41 JUMP JUMPDEST POP ISZERO PUSH2 0x6E0 JUMPI DUP10 DUP9 DUP11 CODESIZE DUP1 PUSH2 0x54C JUMP JUMPDEST PUSH1 0x64 SWAP1 DUP10 DUP6 MLOAD SWAP2 PUSH3 0x461BCD PUSH1 0xE5 SHL DUP4 MSTORE DUP3 ADD MSTORE PUSH1 0x16 PUSH1 0x24 DUP3 ADD MSTORE PUSH32 0x5061796F7574207472616E73666572206661696C656400000000000000000000 PUSH1 0x44 DUP3 ADD MSTORE REVERT JUMPDEST SWAP1 PUSH32 0x496E73756666696369656E7420636F6E74726163742062616C616E6365000000 PUSH1 0xE4 PUSH1 0x64 SWAP4 DUP15 PUSH3 0x461BCD PUSH1 0xE5 SHL DUP6 MSTORE PUSH1 0xA4 DUP3 ADD MSTORE PUSH1 0x1D PUSH1 0xC4 DUP3 ADD MSTORE ADD MSTORE REVERT JUMPDEST PUSH1 0x24 DUP13 PUSH1 0x11 DUP6 PUSH4 0x4E487B71 PUSH1 0xE0 SHL DUP4 MSTORE MSTORE REVERT JUMPDEST PUSH1 0x24 DUP11 PUSH1 0x11 DUP8 PUSH4 0x4E487B71 PUSH1 0xE0 SHL DUP4 MSTORE MSTORE REVERT JUMPDEST PUSH1 0x24 DUP11 PUSH1 0x41 DUP8 PUSH4 0x4E487B71 PUSH1 0xE0 SHL DUP4 MSTORE MSTORE REVERT JUMPDEST PUSH1 0x64 SWAP1 DUP6 DUP6 MLOAD SWAP2 PUSH3 0x461BCD PUSH1 0xE5 SHL DUP4 MSTORE DUP3 ADD MSTORE PUSH1 0x1E PUSH1 0x24 DUP3 ADD MSTORE PUSH32 0x4E756D626572206D757374206265206265747765656E203120616E6420360000 PUSH1 0x44 DUP3 ADD MSTORE REVERT JUMPDEST POP PUSH1 0x6 DUP4 GT ISZERO PUSH2 0x4D6 JUMP JUMPDEST PUSH1 0x64 SWAP1 DUP6 DUP6 MLOAD SWAP2 PUSH3 0x461BCD PUSH1 0xE5 SHL DUP4 MSTORE DUP3 ADD MSTORE PUSH1 0x16 PUSH1 0x24 DUP3 ADD MSTORE PUSH32 0x42657420616D6F756E7420697320746F6F206869676800000000000000000000 PUSH1 0x44 DUP3 ADD MSTORE REVERT JUMPDEST PUSH1 0x64 SWAP1 DUP6 DUP6 MLOAD SWAP2 PUSH3 0x461BCD PUSH1 0xE5 SHL DUP4 MSTORE DUP3 ADD MSTORE PUSH1 0x15 PUSH1 0x24 DUP3 ADD MSTORE PUSH32 0x42657420616D6F756E7420697320746F6F206C6F770000000000000000000000 PUSH1 0x44 DUP3 ADD MSTORE REVERT JUMPDEST DUP5 DUP1 REVERT JUMPDEST DUP4 DUP1 REVERT JUMPDEST POP POP CALLVALUE PUSH2 0x23B JUMPI DUP2 PUSH1 0x3 NOT CALLDATASIZE ADD SLT PUSH2 0x23B JUMPI PUSH1 0x20 SWAP1 PUSH1 0x2 SLOAD SWAP1 MLOAD SWAP1 DUP2 MSTORE RETURN JUMPDEST POP CALLVALUE PUSH2 0x196 JUMPI PUSH1 0x20 CALLDATASIZE PUSH1 0x3 NOT ADD SLT PUSH2 0x196 JUMPI DUP1 CALLDATALOAD SWAP1 PUSH1 0x1 PUSH1 0x1 PUSH1 0xA0 SHL SUB SWAP1 DUP2 DUP6 SLOAD AND PUSH2 0x8C1 DUP2 CALLER EQ PUSH2 0xD20 JUMP JUMPDEST SELFBALANCE DUP5 GT PUSH2 0x953 JUMPI DUP6 DUP1 DUP1 DUP7 DUP2 SWAP5 GAS CALL PUSH2 0x8D8 PUSH2 0xB41 JUMP JUMPDEST POP ISZERO PUSH2 0x910 JUMPI POP PUSH32 0xEAFF4B37086828766AD3268786972C0CD24259D4C87A80F9D3963A3C3D999B0D SWAP2 PUSH1 0x20 SWAP2 DUP6 SLOAD AND SWAP4 MLOAD SWAP1 DUP2 MSTORE LOG2 DUP1 RETURN JUMPDEST PUSH1 0x64 SWAP1 PUSH1 0x20 DUP6 MLOAD SWAP2 PUSH3 0x461BCD PUSH1 0xE5 SHL DUP4 MSTORE DUP3 ADD MSTORE PUSH1 0x11 PUSH1 0x24 DUP3 ADD MSTORE PUSH32 0x5769746864726177616C206661696C6564000000000000000000000000000000 PUSH1 0x44 DUP3 ADD MSTORE REVERT JUMPDEST PUSH1 0x64 DUP3 PUSH1 0x20 DUP8 MLOAD SWAP2 PUSH3 0x461BCD PUSH1 0xE5 SHL DUP4 MSTORE DUP3 ADD MSTORE PUSH1 0x14 PUSH1 0x24 DUP3 ADD MSTORE PUSH32 0x496E73756666696369656E742062616C616E6365000000000000000000000000 PUSH1 0x44 DUP3 ADD MSTORE REVERT JUMPDEST POP CALLVALUE PUSH2 0x196 JUMPI DUP3 PUSH1 0x3 NOT CALLDATASIZE ADD SLT PUSH2 0x196 JUMPI PUSH1 0x20 SWAP3 POP SLOAD SWAP1 MLOAD SWAP1 DUP2 MSTORE RETURN JUMPDEST POP POP CALLVALUE PUSH2 0x23B JUMPI DUP1 PUSH1 0x3 NOT CALLDATASIZE ADD SLT PUSH2 0x23B JUMPI PUSH2 0x9D9 PUSH2 0x9D0 PUSH2 0xAAD JUMP JUMPDEST PUSH1 0x24 CALLDATALOAD SWAP1 PUSH2 0xBC3 JUMP JUMPDEST DUP2 MLOAD SWAP3 DUP4 SWAP3 PUSH1 0x20 DUP1 DUP1 DUP7 ADD SWAP3 DUP2 DUP8 MSTORE DUP6 MLOAD DUP1 SWAP5 MSTORE DUP7 ADD SWAP5 ADD SWAP3 JUMPDEST DUP3 DUP2 LT PUSH2 0xA02 JUMPI POP POP POP POP SUB SWAP1 RETURN JUMPDEST DUP4 MLOAD DUP6 MSTORE DUP7 SWAP6 POP SWAP4 DUP2 ADD SWAP4 SWAP3 DUP2 ADD SWAP3 PUSH1 0x1 ADD PUSH2 0x9F3 JUMP JUMPDEST POP POP CALLVALUE PUSH2 0x23B JUMPI DUP2 PUSH1 0x3 NOT CALLDATASIZE ADD SLT PUSH2 0x23B JUMPI MLOAD SELFBALANCE DUP2 MSTORE PUSH1 0x20 SWAP1 RETURN JUMPDEST SWAP3 SWAP2 SWAP1 POP CALLVALUE PUSH2 0x871 JUMPI PUSH1 0x20 CALLDATASIZE PUSH1 0x3 NOT ADD SLT PUSH2 0x871 JUMPI DUP2 PUSH1 0xE0 SWAP5 PUSH1 0xFF SWAP3 CALLDATALOAD DUP2 MSTORE PUSH1 0x5 PUSH1 0x20 MSTORE KECCAK256 PUSH1 0x1 PUSH1 0x1 PUSH1 0xA0 SHL SUB DUP2 SLOAD AND SWAP3 PUSH1 0x1 DUP3 ADD SLOAD PUSH1 0x3 PUSH1 0x2 DUP5 ADD SLOAD SWAP4 ADD SLOAD SWAP5 DUP7 MSTORE PUSH1 0x20 DUP7 ADD MSTORE DUP3 DUP3 AND SWAP1 DUP6 ADD MSTORE DUP2 DUP2 PUSH1 0x8 SHR AND PUSH1 0x60 DUP6 ADD MSTORE DUP2 DUP2 PUSH1 0x10 SHR AND ISZERO ISZERO PUSH1 0x80 DUP6 ADD MSTORE PUSH1 0x18 SHR AND ISZERO ISZERO PUSH1 0xA0 DUP4 ADD MSTORE PUSH1 0xC0 DUP3 ADD MSTORE RETURN JUMPDEST PUSH1 0x4 CALLDATALOAD SWAP1 PUSH1 0x1 PUSH1 0x1 PUSH1 0xA0 SHL SUB DUP3 AND DUP3 SUB PUSH2 0xAC3 JUMPI JUMP JUMPDEST PUSH1 0x0 DUP1 REVERT JUMPDEST PUSH1 0x0 NOT DUP2 EQ PUSH2 0xAD7 JUMPI PUSH1 0x1 ADD SWAP1 JUMP JUMPDEST PUSH4 0x4E487B71 PUSH1 0xE0 SHL PUSH1 0x0 MSTORE PUSH1 0x11 PUSH1 0x4 MSTORE PUSH1 0x24 PUSH1 0x0 REVERT JUMPDEST PUSH1 0xE0 DUP2 ADD SWAP1 DUP2 LT PUSH8 0xFFFFFFFFFFFFFFFF DUP3 GT OR PUSH2 0xB09 JUMPI PUSH1 0x40 MSTORE JUMP JUMPDEST PUSH4 0x4E487B71 PUSH1 0xE0 SHL PUSH1 0x0 MSTORE PUSH1 0x41 PUSH1 0x4 MSTORE PUSH1 0x24 PUSH1 0x0 REVERT JUMPDEST SWAP1 PUSH1 0x1F DUP1 NOT SWAP2 ADD AND DUP2 ADD SWAP1 DUP2 LT PUSH8 0xFFFFFFFFFFFFFFFF DUP3 GT OR PUSH2 0xB09 JUMPI PUSH1 0x40 MSTORE JUMP JUMPDEST RETURNDATASIZE ISZERO PUSH2 0xB7C JUMPI RETURNDATASIZE SWAP1 PUSH8 0xFFFFFFFFFFFFFFFF DUP3 GT PUSH2 0xB09 JUMPI PUSH1 0x40 MLOAD SWAP2 PUSH2 0xB70 PUSH1 0x1F DUP3 ADD PUSH1 0x1F NOT AND PUSH1 0x20 ADD DUP5 PUSH2 0xB1F JUMP JUMPDEST DUP3 MSTORE RETURNDATASIZE PUSH1 0x0 PUSH1 0x20 DUP5 ADD RETURNDATACOPY JUMP JUMPDEST PUSH1 0x60 SWAP1 JUMP JUMPDEST PUSH8 0xFFFFFFFFFFFFFFFF DUP2 GT PUSH2 0xB09 JUMPI PUSH1 0x5 SHL PUSH1 0x20 ADD SWAP1 JUMP JUMPDEST DUP1 MLOAD DUP3 LT ISZERO PUSH2 0xBAD JUMPI PUSH1 0x20 SWAP2 PUSH1 0x5 SHL ADD ADD SWAP1 JUMP JUMPDEST PUSH4 0x4E487B71 PUSH1 0xE0 SHL PUSH1 0x0 MSTORE PUSH1 0x32 PUSH1 0x4 MSTORE PUSH1 0x24 PUSH1 0x0 REVERT JUMPDEST PUSH1 0x1 PUSH1 0x1 PUSH1 0xA0 SHL SUB PUSH1 0x0 SWAP2 AND DUP2 MSTORE PUSH1 0x20 SWAP2 PUSH1 0x6 DUP4 MSTORE PUSH1 0x40 DUP3 KECCAK256 PUSH1 0x40 MLOAD DUP1 DUP3 DUP7 DUP3 SWAP5 SLOAD SWAP4 DUP5 DUP2 MSTORE ADD SWAP1 DUP7 MSTORE DUP7 DUP7 KECCAK256 SWAP3 DUP7 JUMPDEST DUP9 DUP3 DUP3 LT PUSH2 0xD0A JUMPI POP POP POP PUSH2 0xC0A SWAP3 POP SUB DUP3 PUSH2 0xB1F JUMP JUMPDEST DUP1 MLOAD SWAP2 DUP3 ISZERO PUSH2 0xCCE JUMPI DUP1 DUP4 GT ISZERO PUSH2 0xCC6 JUMPI SWAP2 SWAP3 JUMPDEST PUSH2 0xC27 DUP4 PUSH2 0xB81 JUMP JUMPDEST SWAP5 PUSH2 0xC35 PUSH1 0x40 MLOAD SWAP7 DUP8 PUSH2 0xB1F JUMP JUMPDEST DUP4 DUP7 MSTORE PUSH1 0x1F NOT PUSH2 0xC44 DUP6 PUSH2 0xB81 JUMP JUMPDEST ADD SWAP1 CALLDATASIZE SWAP1 DUP8 ADD CALLDATACOPY PUSH1 0x0 NOT DUP1 DUP6 ADD SWAP5 DUP1 DUP7 GT DUP4 JUMPDEST DUP7 DUP2 LT PUSH2 0xC69 JUMPI POP POP POP POP POP POP POP POP SWAP1 JUMP JUMPDEST DUP2 PUSH2 0xCB2 JUMPI DUP4 DUP2 DUP5 SUB ADD DUP9 DUP2 GT PUSH2 0xC9E JUMPI SWAP1 PUSH2 0xC88 PUSH2 0xC99 SWAP3 DUP9 PUSH2 0xB99 JUMP JUMPDEST MLOAD PUSH2 0xC93 DUP3 DUP13 PUSH2 0xB99 JUMP JUMPDEST MSTORE PUSH2 0xAC8 JUMP JUMPDEST PUSH2 0xC57 JUMP JUMPDEST PUSH1 0x24 DUP7 PUSH4 0x4E487B71 PUSH1 0xE0 SHL DUP2 MSTORE PUSH1 0x11 PUSH1 0x4 MSTORE REVERT JUMPDEST PUSH1 0x24 DUP6 PUSH4 0x4E487B71 PUSH1 0xE0 SHL DUP2 MSTORE PUSH1 0x11 PUSH1 0x4 MSTORE REVERT JUMPDEST POP DUP2 SWAP3 PUSH2 0xC1E JUMP JUMPDEST POP POP POP PUSH1 0x40 MLOAD SWAP2 DUP3 ADD DUP3 DUP2 LT PUSH8 0xFFFFFFFFFFFFFFFF DUP3 GT OR PUSH2 0xCF6 JUMPI PUSH1 0x40 MSTORE DUP1 DUP3 MSTORE CALLDATASIZE DUP2 CALLDATACOPY SWAP1 JUMP JUMPDEST PUSH1 0x24 DUP3 PUSH4 0x4E487B71 PUSH1 0xE0 SHL DUP2 MSTORE PUSH1 0x41 PUSH1 0x4 MSTORE REVERT JUMPDEST DUP6 SLOAD DUP5 MSTORE PUSH1 0x1 SWAP6 DUP7 ADD SWAP6 DUP8 SWAP6 POP SWAP4 ADD SWAP3 ADD PUSH2 0xBF3 JUMP JUMPDEST ISZERO PUSH2 0xD27 JUMPI JUMP JUMPDEST PUSH1 0x84 PUSH1 0x40 MLOAD PUSH3 0x461BCD PUSH1 0xE5 SHL DUP2 MSTORE PUSH1 0x20 PUSH1 0x4 DUP3 ADD MSTORE PUSH1 0x21 PUSH1 0x24 DUP3 ADD MSTORE PUSH32 0x4F6E6C79206F776E65722063616E2063616C6C20746869732066756E6374696F PUSH1 0x44 DUP3 ADD MSTORE PUSH32 0x6E00000000000000000000000000000000000000000000000000000000000000 PUSH1 0x64 DUP3 ADD MSTORE REVERT INVALID LOG2 PUSH5 0x6970667358 0x22 SLT KECCAK256 DUP12 EQ 0x5E DUP9 0x5F 0xE4 MOD DUP12 0xB7 PUSH16 0x1F91013FE2F9A8F489246BFD76F6E406 0xDD MOD 0x4A 0xE7 0x49 GASPRICE PUSH5 0x736F6C6343 STOP ADDMOD SGT STOP CALLER "},"methodIdentifiers":{"depositFunds()":"e2c41dbc","gameCounter()":"2e0be39a","games(uint256)":"117a5b90","getBalance()":"12065fe0","getGame(uint256)":"a2f77bcc","getPlayerGames(address,uint256)":"288b4595","houseEdge()":"d667dcd7","maxBet()":"2e5b2168","minBet()":"9619367d","owner()":"8da5cb5b","play(uint8)":"53a04b05","setBetLimits(uint256,uint256)":"7687dd49","setHouseEdge(uint256)":"6cd0f102","transferOwnership(address)":"f2fde38b","withdraw(uint256)":"2e1a7d4d"}}}}}